S01700006E65775F6D61736B5F7374796C65722E73726563B6
S113000045C0000053C0000051C000004FC00000B4
S11300104DC000004BC0000049C0000047C00000B4
S113002045C0000043C0000041C000003FC00000C4
S11300303DC000003BC0000039C0000037C00000D4
S113004035C0000033C0000031C000002FC00000E4
S11300502DC000002BC0000029C0000027C00000F4
S113006025C0000023C0000021C000001FC0000004
S11300701DC000001BC0000019C0000017C0000014
S113008015C0000013C0000011C0000011241FBEE1
S1130090CFEFD0E1DEBFCDBF21E0A0E0B1E001C0F1
S11300A01D92A030B207E1F702D04CC0A9CF0ED008
S11300B009D03AD019D034D0789480E49FE19BBD24
S11300C08ABDFBCF17B887E886B908958FEF8ABB3E
S11300D01BBA87BB9FE098BB98E192B913B881BB68
S11300E012BA10926100089583E48FBD8AE18EBD37
S11300F010927A009AE490938B0080938A00109275
S11301008C001DBC1CBC10928900109288008FEFDB
S113011097E097BD86BD90938100809380000895F9
S11301208EE683BF12BE089510929B0088E18093EF
S11301309A0086E080939D001092980087E6809351
S10B014099000895F894FFCF23
S9030000FC
